S02B0000433A5C55736572735C49766F5C4465736B746F705C4749425A5C496E666F726D6174696B5C4D323422
S11300000C9434000C9451000C9451000C94510045
S11300100C9451000C9451000C9451000C94510018
S11300200C9451000C9451000C9451000C94510008
S11300300C9451000C9451000C9451000C945100F8
S11300400C9451000C9451000C948D000C945100AC
S11300500C9451000C9451000C9451000C945100D8
S11300600C9451000C94510011241FBECFEFD8E022
S1130070DEBFCDBF11E0A0E0B1E0E0EDF1E002C0F1
S113008005900D92A030B107D9F721E0A0E0B1E0CE
S113009001C01D92A232B207E1F70E9453000C94F2
S11300A0E6000C94000060E970ED83E090E00E94AB
S11300B07A0088E184B915B830E041E050E0842F3B
S11300C03111852F382F25B190E0880F991F880FA3
S11300D0991F880F991F8870922F977F892B85B954
S11300E02FEF83ED90E3215080409040E1F700C072
S11300F00000E5CF9B01AC0160E472E48FE090E086
S11301000E94C40021503109E0ECF0E035832483DF
S113011088E181838EE0828308951F920F920FB647
S11301200F9211242F938F939F93AF93BF93EF93C9
S1130130FF93E0ECF0E019C026818091010190E08A
S113014001968F719078992324F40197806E9F6FA4
S1130150019690910001891741F0A0910101B0E04E
S1130160AE5FBE4F2C93809301018081882324F3DA
S1130170FF91EF91BF91AF919F918F912F910F902C
S11301800FBE0F901F901895A1E21A2EAA1BBB1B3D
S1130190FD010DC0AA1FBB1FEE1FFF1FA217B3074F
S11301A0E407F50720F0A21BB30BE40BF50B661F65
S11301B0771F881F991F1A9469F760957095809529
S11301C090959B01AC01BD01CF010895F894FFCF38
S9030000FC
